:1000000014C024C023C022C021C020C01FC01EC0F5
:100010001DC01CC01BC01AC019C018C017C016C014
:1000200015C014C013C012C011C011241FBECFEDE3
:10003000CDBF10E0A0E6B0E0ECEAF3E002C005902E
:100040000D92A238B107D9F799D1AEC1D9CF2F926D
:100050003F924F925F926F927F928F929F92AF9258
:10006000BF92CF92DF92EF92FF920F931F93CF93A5
:10007000DF93CDB7DD27C750CDBF0F2EFAE7AF2EE8
:10008000F0E0BF2EF02D6CE670E022E730E0FB01DF
:10009000D50141E050E07C836B838D918234C9F4BB
:1000A00097B3BA01008002C0660F771F0A94E2F787
:1000B000862F8095892387BB98B3BA01008002C040
:1000C000660F771F0A94E2F7862F8095892388BBF5
:1000D0001AC08434C1F491B3BA01008002C0660F23
:1000E000771F0A94E2F7862F8095892381BB92B30C
:1000F000BA01008002C0660F771F0A94E2F7862FCC
:100100008095892382BB3296E217F30731F62AE7FE
:1001100030E0E2E7F0E0ADE7B0E041E050E08D91A3
:100120008234B9F497B3BA01008002C0660F771F1A
:100130000A94E2F7862F8095892387BB68B3CA01AA
:10014000008002C0880F991F0A94E2F7862B88BBB3
:1001500018C08434B1F491B3BA01008002C0660FB4
:10016000771F0A94E2F7862F8095892381BB62B3BB
:10017000CA01008002C0880F991F0A94E2F7862BFB
:1001800082BB3296E217F30751F6812C912C40E0A6
:1001900050E020E030E001E010E06501F5018081F1
:1001A0008234C9F467B3C801EB81FC81008002C0CE
:1001B000880F991F0A94E2F7862B87BB98B3B80182
:1001C000008002C0660F771F0A94E2F7862F8095A1
:1001D000892388BB1AC08434C1F461B3C801EB81A0
:1001E000FC81008002C0880F991F0A94E2F7862BD9
:1001F00081BB92B3B801008002C0660F771F0A94DA
:10020000E2F7862F8095892382BB66B370E0E0B267
:10021000F12CE2E7F0E0ADE7B0E080E090E0692C9F
:100220007F836E83382C7D91723461F49801008055
:1002300002C0220F331F0A94E2F76E817F812623CA
:1002400037230BC0743449F49801008002C0220F98
:10025000331F0A94E2F72E213F212115310531F495
:100260004F5F5F4F432C562C9A83898301963296B9
:1002700084309105C1F6F6018081FFEFAF1ABF0A05
:100280008234D9F497B3B801EB81FC81008002C0BD
:10029000660F771F0A94E2F7862F8095892387BB24
:1002A00098B3B801008002C0660F771F0A94E2F786
:1002B000862F8095892388BB1CC08434D1F491B3E8
:1002C000B801EB81FC81008002C0660F771F0A94A1
:1002D000E2F7862F8095892381BB92B3B801008015
:1002E00002C0660F771F0A94E2F7862F8095892354
:1002F00082BBFFEF8F1A9F0A6B817C816E5F7F4FFD
:100300007C836B8373E08716910409F046CF4130FC
:10031000510571F4E981FA81EE0FFF1F89819A81FD
:10032000E80FF91FE05AFF4FE40DF51D808101C071
:100330008EE7C95FCDBFDF91CF911F910F91FF90E5
:10034000EF90DF90CF90BF90AF909F908F907F9075
:100350006F905F904F903F902F9008955E9A539AC0
:1003600086E083B98AEF89B912B8899A08955D9BAE
:10037000FECF8CB95E9BFECF5E9A089588EE93E027
:10038000EDDF80E3F4DF63DEE3ECF9E03197F1F7D2
:1003900000C000008E37B9F3EADF87EA91E60197E3
:0C03A000F1F700C00000EFCFF894FFCF91
:1003AC003132333435363738392A302301000600E0
:1003BC000300000000000400020042444242444298
:0203CC004200ED
:00000001FF
