:100000000C9434000C9451000C9451000C94510049
:100010000C9451000C9451000C9451000C9451001C
:100020000C9451000C9451000C9451000C949801C4
:100030000C9451000C9451000C9451000C945100FC
:100040000C9451000C9451000C9451000C945100EC
:100050000C9451000C9451000C9451000C945100DC
:100060000C9451000C94510011241FBECFEFD8E026
:10007000DEBFCDBF11E0A0E0B1E0EEE9FEE002C0DE
:1000800005900D92AC34B107D9F721E0ACE4B1E0B2
:1000900001C01D92AB38B207E1F70E9428040C940E
:1000A0004D070C9400005A9A00005A980895CF9377
:1000B000C82F662311F05B9A01C05B9859983D9A4E
:1000C0003C9A3B9A3A9A4298439844984598CC2354
:1000D0000CF4429AC6FD439AC5FD449AC4FD459A64
:1000E0000E9453004298439844984598C3FD429A11
:1000F000C2FD439AC1FD449AC0FD459A0E94530037
:10010000459A449A439A429ACF910895882311F0D0
:100110005B9A01C05B98599A3D983C983B983A98F5
:100120005A9A0000359B02C080E101C080E03499FA
:10013000806233998064329980685A9800005A9A94
:1001400000003599816034998260339984603299D6
:1001500088605A98089580E00E9486008823DCF326
:1001600000C000C080E00E9486000895CF93C82F91
:100170000E94AB0060E08C2F0E945700CF91089541
:10018000611104C080580E94B600089580540E94F6
:10019000B600089581E00E94B6000895CF93C82F5D
:1001A0000E94AB00CA3049F4803410F080E001C0F6
:1001B00080E480580E94B60004C061E08C2F0E9449
:1001C0005700CF910895CF93DF93EC012196FC0166
:1001D0008081882329F00E94CE0089918111FBCF74
:1001E000DF91CF910895CF93C82F539A519A529A85
:1001F0003D9A3C9A3B9A3A9A8FE99FE00197F1F732
:1002000000C00000449A459A0E94530081EE94E099
:100210000197F1F700C000000E94530095E19A9504
:10022000F1F700000E94530085E18A95F1F7000084
:1002300045980E94530095E19A95F1F7000088E2F5
:100240000E94B60088E00E94B6000E94CA0086E0C4
:100250000E94B6008C2F0E94B600CF910895E1EC69
:10026000F0E080818061808386E08093C2008AEF25
:100270008093C4001092C50050980895E0ECF0E01F
:1002800006C05C9A319903C05C988EE7089580811E
:100290008823BCF78091C6005C980895E5E5F1E0FD
:1002A00010821182128213828CE0E0E0F1E0A9E575
:1002B000B1E001900D928A95E1F760E080E00E9444
:1002C000C00089E591E00E94E3000895CF93C62F16
:1002D00060E00E94C000CA3098F41F92CF938CE077
:1002E00091E09F938F938CE491E09F938F930E9472
:1002F00063040F900F900F900F900F900F9012C00B
:100300001F92CF938DE091E09F938F938CE491E0C7
:100310009F938F930E9463040F900F900F900F9004
:100320000F900F908CE491E00E94E300CF9108952C
:100330001F920F920FB60F9211242F933F934F935A
:100340005F936F937F938F939F93AF93BF93CF935D
:10035000DF93EF93FF9380915201882321F0813046
:1003600009F456C0ABC080915501833609F045C0F1
:10037000C5E5D1E01882688189E090E00E946601BD
:1003800089818B3379F51982698186E090E00E943A
:1003900066018A818B33D9F41A826A8183E090E006
:1003A0000E9466018B81873139F41B826B8180E06A
:1003B00090E00E94660182C0E5E5F1E083818F5FF5
:1003C0008383638180E090E00E94660177C0E5E569
:1003D000F1E082818F5F8283628183E090E00E94FE
:1003E00066016CC0E5E5F1E081818F5F8183618109
:1003F00086E090E00E94660161C0E5E5F1E0808161
:100400008F5F8083608189E090E00E94660156C022
:1004100080915501811148C080915601811132C0EF
:100420008091570181111CC080915801811107C032
:100430006091580180E090E00E9466013FC0C5E5F0
:10044000D1E08A816A8183E090E00E9466018B811D
:1004500081508B836B8180E090E00E9466012EC00A
:10046000C5E5D1E08BE38983698186E090E00E9455
:1004700066018A8181508A836A8183E090E00E94CC
:1004800066011CC0C5E5D1E083E68883688189E008
:1004900090E00E946601898181508983698186E0AC
:1004A00090E00E9466010AC0E5E5F1E0808181509C
:1004B0008083608189E090E00E946601FF91EF9166
:1004C000DF91CF91BF91AF919F918F917F916F916C
:1004D0005F914F913F912F910F900FBE0F901F9002
:1004E0001895CF93DF93809156018C3340F0E5E56A
:1004F000F1E081818C53818382818F5F828380913F
:1005000057018C3340F0E5E5F1E082818C53828322
:1005100083818F5F838380915801883170F0E5E596
:10052000F1E093818BEA989F812D112482958F7041
:1005300028E1829F901911249383C5E5D1E0688159
:1005400089E090E00E946601698186E090E00E9467
:1005500066016A8183E090E00E9466016B8180E021
:1005600090E00E946601DF91CF9108958FE0E0E175
:10057000F1E0A9E5B1E001900D928A95E1F760E024
:1005800080E00E94C00089E591E00E94E3000E94A3
:100590003E01813319F41092520108958233B9F764
:1005A00081E08093520108956F927F928F929F9283
:1005B000AF92BF92CF92DF92EF92FF920F931F9371
:1005C000CF93DF93CDB7DEB760970FB6F894DEBF59
:1005D0000FBECDBF813009F446C018F08230F9F06B
:1005E00022C110925301E1ECF0E0808180618083B0
:1005F000EFE6F0E080818D7F808387E0EFE1F1E03E
:10060000A9E5B1E001900D928A95E1F761E080E003
:100610000E94C00089E591E00E94E30004C182E0ED
:1006200080935301E1ECF0E080818F7E80830FE6C0
:1006300010E0D8018C918D7F8C9387E0E0E3F1E0AE
:10064000A9E5B1E001900D928A95E1F761E080E0C3
:100650000E94C00089E591E00E94E300F8018081DA
:1006600082608083E0C081E08093530141980E94C2
:10067000B60281E1E6E2F1E0A9E5B1E001900D9278
:100680008A95E1F760E080E00E94C00089E591E092
:100690000E94E300FE01319680E1DF011D928A9500
:1006A000E9F7E12CF12C0F2EF5E56F2EF1E07F2E0E
:1006B000F02D0F2EF7E38F2EF1E09F2EF02D0F2E51
:1006C000F9E5CF2EF1E0DF2EF02D8F015E01B1E1D3
:1006D000AB0EB11CA3C00E943E018093540190ED6B
:1006E000980F9A3008F06AC0E8E0EE16F104C9F4F9
:1006F000FE01319611921192AE16BF06D9F78CE029
:10070000E0E0F1E0D60101900D928A95E1F760E01A
:1007100080E00E94C000C6010E94E300E12CF12CA1
:1007200013C01E141F0484F4F701EE0FFF1F81E0B5
:1007300090E08C0F9D1FE80FF91F92918291938397
:100740008283E017F107C9F78091540190E0C097C8
:100750009A8389839F938F938C818F938B818F93BF
:100760008E818F938D818F9388858F938F818F93C7
:100770008A858F9389858F938C858F938B858F93B3
:100780008E858F938D858F9388898F938F858F9397
:100790009F928F92DF92CF920E94630460E080E08C
:1007A0000E94C000C6010E94E3009FEFE91AF90A07
:1007B0000FB6F894DEBF0FBECDBF30C08A3271F5E0
:1007C000E114F10459F18B81880F982F990F990F3B
:1007D000890F9981890FF30180838F81880F982F6A
:1007E000990F990F890F9D81890F81838B85880FC0
:1007F000982F990F990F890F9985890F82838F857B
:10080000880F982F990F990F890F9D85890F8383E2
:100810000E947102419A82E00E94D40280915301A9
:10082000813009F458CF60960FB6F894DEBF0FBE42
:10083000CDBFDF91CF911F910F91FF90EF90DF908F
:10084000CF90BF90AF909F908F907F906F900895C2
:100850008CE00E94F3000E94CA0089E0809381002E
:100860008FE097E29093890080938800789439987C
:10087000419A549A5C9888EE93E00E942F010E945E
:100880004E0180E00E94D40231990FC08091530143
:10089000823021F480E00E94D40205C0811103C09F
:1008A00082E00E94D402319BFECF809153018111DE
:1008B000EBCF0E943E0180935401833229F781E0FF
:1008C0000E94D402E1CFAEE0B0E0E9E6F4E00C949F
:1008D00024070D891E8986E08C831A8309838FEF94
:1008E0009FE79E838D83AE01475E5F4F6F89788D52
:1008F000CE0101960E948504EF81F885E00FF11F7B
:1009000010822E96E4E00C944007ABE0B0E0EBE8F8
:10091000F4E00C9416076C017B018A01FC0117823C
:100920001682838181FFCCC1CE0101963C01F60184
:100930009381F70193FD859193FF81917F01882336
:1009400009F4BAC1853239F493FD859193FF819101
:100950007F01853229F4B60190E00E947C06E7CF42
:10096000912C212C312CFFE1F315D8F08B3279F04A
:1009700038F4803279F08332A1F4232D20611DC038
:100980008D3261F0803369F4232D216016C0832DF0
:100990008260382EE32DE4603E2E2AC0F32DF860ED
:1009A0001DC037FC2DC020ED280F2A3040F08E32BC
:1009B000B9F436FC81C1232D2064322E19C036FED5
:1009C00006C08AE0989E200D1124922E11C0EAE004
:1009D0002E9E200D1124222EF32DF0623F2E08C0F2
:1009E0008C3621F4832D8068382E02C0883641F47D
:1009F000F70193FD859193FF81917F018111B3CF21
:100A0000982F9F7D9554933028F40C5F1F4F9FE3E0
:100A100099830DC0833631F0833771F0833509F047
:100A200059C021C0F801808189830E5F1F4F88243F
:100A30008394912C530113C02801F2E04F0E511CF6
:100A4000F801A080B18036FE03C0692D70E002C0BD
:100A50006FEF7FEFC5010E9471064C018201F32DFB
:100A6000FF773F2E16C0280122E0420E511CF801EC
:100A7000A080B18036FE03C0692D70E002C06FEF28
:100A80007FEFC5010E9466064C01F32DF0683F2EF2
:100A9000820133FC1BC0822D90E088169906B0F4C9
:100AA000B60180E290E00E947C062A94F4CFF50122
:100AB00037FC859137FE81915F01B60190E00E947D
:100AC0007C0621102A9421E0821A91088114910455
:100AD00071F7E8C0843611F0893641F5F80137FE28
:100AE00007C060817181828193810C5F1F4F08C0B4
:100AF00060817181072E000C880B990B0E5F1F4FD0
:100B0000F32DFF763F2E97FF09C090958095709545
:100B100061957F4F8F4F9F4FF0683F2E2AE030E066
:100B2000A3010E94B806882E861845C0853731F487
:100B3000232D2F7EB22E2AE030E025C0932D997F01
:100B4000B92E8F36C1F018F4883579F0B5C08037EA
:100B500019F0883721F0B0C0E92FE061BE2EB4FE55
:100B60000DC0FB2DF460BF2E09C034FE0AC0292F32
:100B70002660B22E06C028E030E005C020E130E05B
:100B800002C020E132E0F801B7FE07C06081718148
:100B9000828193810C5F1F4F06C06081718180E06C
:100BA00090E00E5F1F4FA3010E94B806882E8618A2
:100BB000FB2DFF773F2E36FE0DC0232D2E7FA22E5C
:100BC000891458F434FE0BC032FC09C0832D8E7E8C
:100BD000A82E05C0B82CA32C03C0B82C01C0B92C7A
:100BE000A4FE0FC0FE01E80DF11D8081803321F4C9
:100BF0009A2D997EA92E09C0A2FE06C0B394B39483
:100C000004C08A2D867809F0B394A3FC11C0A0FE1D
:100C100006C0B21488F4280C922C9B180EC0B21493
:100C200060F4B60180E290E00E947C06B394F7CFB6
:100C3000B21418F42B1802C0982C212CA4FE10C05A
:100C4000B60180E390E00E947C06A2FE17C0A1FCE2
:100C500003C088E790E002C088E590E0B6010CC0D0
:100C60008A2D867859F0A1FE02C08BE201C080E295
:100C7000A7FC8DE2B60190E00E947C06891438F44E
:100C8000B60180E390E00E947C069A94F7CF8A94A4
:100C9000F301E80DF11D8081B60190E00E947C0611
:100CA0008110F5CF222009F442CEB60180E290E017
:100CB0000E947C062A94F6CFF6018681978102C0B5
:100CC0008FEF9FEF2B96E2E10C943207FC01059029
:100CD000615070400110D8F7809590958E0F9F1F3E
:100CE0000895FC016150704001900110D8F7809583
:100CF00090958E0F9F1F08950F931F93CF93DF93AF
:100D0000FB01238121FD03C08FEF9FEF2CC022FF49
:100D100016C046815781248135814217530744F418
:100D2000A081B1819D012F5F3F4F318320838C9340
:100D3000268137812F5F3F4F3783268314C08B0175
:100D4000EC01FB010084F185E02D0995892BE1F68A
:100D5000D80116968D919C911797019617969C93A2
:100D60008E931697CE01DF91CF911F910F91089529
:100D7000FA01AA27283051F1203181F1E8946F93CC
:100D80006E7F6E5F7F4F8F4F9F4FAF4FB1E03ED072
:100D9000B4E03CD0670F781F891F9A1FA11D680F10
:100DA000791F8A1F911DA11D6A0F711D811D911D43
:100DB000A11D20D009F468943F912AE0269F1124B8
:100DC0003019305D3193DEF6CF010895462F47701C
:100DD000405D4193B3E00FD0C9F7F6CF462F4F7077
:100DE000405D4A3318F0495D31FD4052419302D0D5
:100DF000A9F7EACFB4E0A69597958795779567957B
:100E0000BA95C9F700976105710508959B01AC017A
:100E10000A2E06945795479537952795BA95C9F7A1
:100E2000620F731F841F951FA01D08952F923F927C
:100E30004F925F926F927F928F929F92AF92BF92EA
:100E4000CF92DF92EF92FF920F931F93CF93DF9396
:100E5000CDB7DEB7CA1BDB0B0FB6F894DEBF0FBEF3
:100E6000CDBF09942A88398848885F846E847D8440
:100E70008C849B84AA84B984C884DF80EE80FD8042
:100E80000C811B81AA81B981CE0FD11D0FB6F894B8
:0E0E9000DEBF0FBECDBFED010895F894FFCF79
:100E9E0030303A30303A30303A303000302575004C
:100EAE0073656C6563742031206F722032200050A0
:100EBE0061757365640020203A20203A20203A2084
:100ECE0020202020202000256425643A25642564F6
:0C0EDE003A256425643A25642564000070
:00000001FF
